{"jsonrpc":"2.0","result":{"blockHash":"0x7eb7c23a5ac2f2d70aa1ba4e5c56d89de5ac993590e5f6e79c394e290d998ba8","blockNumber":"0x10d4f","condition":null,"creates":null,"from":"0x4458f86353b4740fe9e09071c23a7437640063c9","gas":"0x5208","gasPrice":"0xba43b7400","hash":"0xa442249820de6be754da81eafbd44a865773e4b23d7c0522d31fd03977823008","input":"0x","networkId":null,"nonce":"0x1","publicKey":"0xcc1423c5c4831fec83d561a9c8508e1f9a33ae5f80648136e572e15c0bdb62abbf94fe3be5db1e9e19634b4ef047369350f044c531adf44b348e8ddcc913944a","r":"0x2c2789c6704ba2606e200e1ba4fd17ba4f0e0f94abe32a12733708c3d3442616","raw":"0xf86b01850ba43b740082520894bf3403210f9802205f426759947a80a9fda71b1e87aa9f075c200000801ba02c2789c6704ba2606e200e1ba4fd17ba4f0e0f94abe32a12733708c3d3442616a02946f47e3ece580b5b5ecb0f8c52604fa5f60aeb4103fc73adcbf6d620f9872b","s":"0x2946f47e3ece580b5b5ecb0f8c52604fa5f60aeb4103fc73adcbf6d620f9872b","standardV":"0x0","to":"0xbf3403210f9802205f426759947a80a9fda71b1e","transactionIndex":"0x0","v":"0x1b","value":"0xaa9f075c200000"},"id":1}
